:020000040800F2
:1000000000500020590E0008F10D0008F30D000803
:10001000F50D0008F70D0008F90D000800000000BC
:10002000000000000000000000000000FB0D0008C0
:10003000FD0D000800000000FF0D0008010E000883
:10004000A10E0008A10E0008A10E0008A10E0008D4
:10005000A10E0008A10E0008A10E0008A10E0008C4
:10006000A10E0008A10E0008A10E0008A10E0008B4
:10007000A10E0008A10E0008A10E0008A10E0008A4
:10008000A10E0008A10E0008A10E0008A10E000894
:10009000A10E0008A10E0008A10E0008A10E000884
:1000A000A10E0008A10E0008A10E0008A10E000874
:1000B000A10E0008A10E0008A10E0008A10E000864
:1000C000A10E0008A10E0008A10E0008A10E000854
:1000D000A10E0008A10E0008A10E0008A10E000844
:1000E000A10E0008A10E0008A10E000800000000EB
:1000F0000000000000000000000000000000000000
:0C01000000000000000000005FF808F1A3
:10010C0010B5054C237833B9044B13B10448AFF345
:10011C0000800123237010BD70000020000000003F
:10012C00A81700080C4B43B10C4810B50C49AFF3A1
:10013C0000800C48036823B910BD0A48036833B922
:10014C007047094B002BF7D0BDE810401847064B01
:10015C00002BF5D0184700BF00000000A8170008BE
:10016C00740000207000002000000000EC46A0E8A5
:10017C00F05F4FF000007047B0E8F05FE546080014
:10018C0008BF0120704700BF10B504460E4B18780D
:10019C004FF47A73B3FBF0F30C4A1068B0FBF3F036
:1001AC0000F092F868B90F2C01D9012010BD002283
:1001BC0021464FF0FF3000F055F8034B5C600020F7
:1001CC0010BD012010BD00BF000000200800002061
:1001DC0008B5074A136843F010031360032000F0BE
:1001EC002FF80020FFF7D0FF00F0ACFD002008BD79
:1001FC0000200240034A1168034B1B780B44136028
:10020C00704700BFA000002000000020014B1868C0
:10021C00704700BFA000002038B50446FFF7F6FF7A
:10022C000546B4F1FF3F02D0044B1B781C44FFF78A
:10023C00EDFF401B8442FAD838BD00BF00000020FF
:10024C00074AD36823F4E0631B041B0C000200F480
:10025C00E060184340F0BF6040F40030D06070475D
:10026C0000ED00E030B4164BDB68C3F30223C3F19E
:10027C000704042C28BF04241D1D062D17D9033B8D
:10028C00012505FA04F4013C2140994005FA03F3D9
:10029C00013B1340194300280BDB0901C9B200F1E3
:1002AC00604000F5614080F8001330BC70470023BB
:1002BC00E6E700F00F000901C9B2024B1954F4E74C
:1002CC0000ED00E014ED00E00138B0F1807F0AD2BF
:1002DC00064B5860F021064A82F8231000209860E3
:1002EC0007221A6070470120704700BF10E000E041
:1002FC0000ED00E0042805D0054A136823F0040340
:10030C0013607047024A136843F00403136070478C
:10031C0010E000E0704708B5FFF7FCFF08BD0000D7
:10032C00F0B583B00026344671E0002D00F0A180BA
:10033C00012D00D1CE68FF2B00F2AF808646FF2B3B
:10034C0000F2AE80A500DEF800200F27AF4022EAB5
:10035C00070206FA05F52A43CEF800204A6812F087
:10036C00805F53D0634A956945F0010595619269A8
:10037C0002F001020192019AA508AF1C5E4A52F8E4
:10038C00272004F00307BF004FF00F0E0EFA07FEF4
:10039C0022EA0E02DFF870E1704500F088800EF55D
:1003AC00806E704500F086800EF5806E704500F012
:1003BC0084800EF5806E704576D04FF0040E0EFAE8
:1003CC0007F73A4302354C4F47F825204A6812F498
:1003DC00803F75D0494D2A681A432A604A6812F446
:1003EC00003F73D0454D6A681A436A604A6812F43C
:1003FC00801F71D0414DAA681A43AA604A6812F452
:10040C00001F6FD03D4DEA681343EB6001340F2C95
:10041C006ED80122A2400B6813409A42F6D14D6867
:10042C00122D30D00BD8022D2AD07FF67EAF032DA3
:10043C002FD0112D7FF47FAFCE6804367BE7304F81
:10044C00BD4216D00CD92F4FBD4212D007F58037C4
:10045C00BD420ED0A7F58017BD427FF46CAF08E00B
:10046C00A7F58017BD4204D007F58037BD427FF455
:10047C0062AF8D687DB1012D08D0426108265AE724
:10048C00CE68083657E7CE680C3654E7026108266A
:10049C0051E700264FE704264DE700F1040E4EE726
:1004AC00A4F10805AD004EE74FF0030E87E74FF0BF
:1004BC00000E84E74FF0010E81E74FF0020E7EE74D
:1004CC000E4D2A6822EA03022A6087E70B4D6A6800
:1004DC0022EA03026A6089E7084DAA6822EA03024D
:1004EC00AA608BE7054DEA6822EA0303EB608DE70F
:1004FC0003B0F0BD001002400000014000040140B8
:10050C0000002110000031100008014012B909044C
:10051C000161704701617047C3685940C160704701
:10052C0082B0084B1B68084AA2FB03235B0A00FB42
:10053C0003F0019000BF019B5A1E0192002BF9D1D0
:10054C0002B0704708000020D34D621070B582B025
:10055C000446036813F0010F3DD0AC4B5B6803F00D
:10056C000C03042B2ED0A94B5B6803F00C03082B57
:10057C0023D06368B3F5803F51D0002B55D103F1E4
:10058C00804303F504331A6822F480321A601A6827
:10059C0022F480221A606368002B60D0FFF736FECD
:1005AC0005469A4B1B6813F4003F14D1FFF72EFE3F
:1005BC00401B6428F5D90320AFE1944B5B6813F41E
:1005CC00803FD6D0914B1B6813F4003F03D0636877
:1005DC00002B00F09F81236813F0020F65D08B4B2A
:1005EC005B6813F00C0F4ED0884B5B6803F00C0368
:1005FC00082B43D02369002B79D00122844B1A603D
:10060C00FFF704FE0546814B1B6813F0020F65D102
:10061C00FFF7FCFD401B0228F5D903207DE17B4A46
:10062C00136843F480331360B5E7B3F5A02F09D0FA
:10063C00764B1A6822F480321A601A6822F48022EF
:10064C001A60A8E703F18043A3F53C331A6842F41F
:10065C0080221A601A6842F480321A609BE7FFF716
:10066C00D5FD0546694B1B6813F4003FB3D0FFF76B
:10067C00CDFD401B6428F5D903204EE1634B5B682C
:10068C0013F4803FB6D1614B1B6813F0020F04D0FA
:10069C002369012B01D001203FE15C4A136823F050
:1006AC00F803616943EAC1031360236813F0080F70
:1006BC0032D0A369002B6ED00122564B1A60FFF783
:1006CC00A5FD0546514B5B6A13F0020F21D1FFF7D4
:1006DC009DFD401B0228F5D903201EE14B4A1368EF
:1006EC0023F0F803616943EAC1031360DDE70022DC
:1006FC00474B1A60FFF78AFD0546444B1B6813F005
:10070C00020FD2D0FFF782FD401B0228F5D903203F
:10071C0003E10120FFF704FF236813F0040F00F03E
:10072C0099803A4BDB6913F0805F46D1374BDA691D
:10073C0042F08052DA61DB6903F080530193019B34
:10074C000125354B1B6813F4807F38D0E368012BEF
:10075C0049D0002B4DD103F1804303F504331A6AC1
:10076C0022F001021A621A6A22F004021A62E36889
:10077C00002B5DD0FFF74AFD0646244B1B6A13F095
:10078C00020F66D1FFF742FD801B41F2883398427D
:10079C00F3D90320C1E000221E4B1A60FFF736FD8F
:1007AC0005461A4B5B6A13F0020FB5D0FFF72EFD0E
:1007BC00401B0228F5D90320AFE00025C1E7164AFB
:1007CC00136843F480731360FFF720FD0646124B49
:1007DC001B6813F4807FB9D1FFF718FD801B6428C8
:1007EC00F5D9032099E0094A136A43F00103136217
:1007FC00BDE7052B12D0054B1A6A22F001021A62D2
:10080C001A6A22F004021A62B1E700BF001002401B
:10081C00000042428004424200700040414B1A6A80
:10082C0042F004021A621A6A42F001021A629EE74E
:10083C00FFF7ECFC06463B4B1B6A13F0020F08D08B
:10084C00FFF7E4FC801B41F288339842F3D9032074
:10085C0063E0E5B9E369002B5ED0324A526802F0DE
:10086C000C02082A5BD0022B17D000222E4B1A60E8
:10087C00FFF7CCFC04462B4B1B6813F0007F47D0D2
:10088C00FFF7C4FC001B0228F5D9032045E0254ADC
:10089C00D36923F08053D361DCE70022224B1A602A
:1008AC00FFF7B4FC05461F4B1B6813F0007F06D006
:1008BC00FFF7ACFC401B0228F5D903202DE0236A7E
:1008CC00B3F5803F1AD017494B6823F47413226A8E
:1008DC00606A024313434B600122134B1A60FFF70B
:1008EC0095FC04460F4B1B6813F0007F0ED1FFF7ED
:1008FC008DFC001B0228F5D903200EE0094A536831
:10090C0023F40033A1680B435360DCE7002004E0C0
:10091C00002002E0012000E0002002B070BD0120A8
:10092C00FBE700BF001002406000424210B586B0E9
:10093C00154C94E80F000DF1180E0EE90F00238AE8
:10094C00ADF80430114B5B6803F00C02082A18D187
:10095C00C3F38342724412F8102C13F4803F03D17A
:10096C000B4800FB02F00DE0084B5B68C3F34043FF
:10097C00734413F8143C074800FB02F0B0FBF3F08F
:10098C0000E0044806B010BDC0170008001002407B
:10099C0000093D0000127A00594B1B6803F0070355
:1009AC008B420CD2564A136823F007030B43136097
:1009BC00136803F00703994201D00120704770B50A
:1009CC00036813F0020F06D04E4A536823F0F0036D
:1009DC008468234353600D460446036813F0010FEB
:1009EC0052D04368012B23D0022B28D0454A1268E1
:1009FC0012F0020F00F0828042494A6822F0030292
:100A0C0013434B60FFF702FC06466368012B1DD0B5
:100A1C00022B2AD03B4B5B6813F00C0F34D0FFF742
:100A2C00F5FB801B41F288339842F3D9032070BD4B
:100A3C00344A126812F4003FDED1012070BD314AF5
:100A4C00126812F0007FD7D1012070BD2D4B5B686E
:100A5C0003F00C03042B17D0FFF7D8FB801B41F2DB
:100A6C0088339842F2D9032070BD264B5B6803F0A3
:100A7C000C03082B08D0FFF7C9FB801B41F288330D
:100A8C009842F2D9032070BD1D4B1B6803F007037D
:100A9C009D420CD21A4A136823F007032B431360B0
:100AAC00136803F007039D4201D0012070BD236839
:100ABC0013F0040F06D0134A536823F4E063E16883
:100ACC000B435360236813F0080F07D00D4A53688B
:100ADC0023F46053216943EAC1035360FFF726FFF7
:100AEC00084B5B68C3F30313074AD35CD840074B2E
:100AFC0018600020FFF748FB002070BD012070BD7E
:100B0C000020024000100240D4170008080000200A
:100B1C00014B1868704700BF0800002008B5054B52
:100B2C0058601B6803B908BD024B18680121FFF718
:100B3C0023FB00BF8C0000200CB42DE9F04383B0E4
:100B4C0080460F460AAB53F8046B01930C2000F05F
:100B5C00C7F90446019B32460021084600F0B6FA5C
:100B6C00451C284600F0BCF98146019B32462946BB
:100B7C0000F0ACFAC4F80090C4F80480A7602046DA
:100B8C00FFF7CCFF03B0BDE8F04302B0704748B1AB
:100B9C0010B50446006808B100F0AAF9204600F030
:100BAC00A7F910BD7047000010B588B0184B9A69B2
:100BBC0042F010029A619A6902F010020192019AB5
:100BCC009A6942F020029A619A6902F0200202921C
:100BDC00029A9A6942F004029A619B6903F0040339
:100BEC000393039B0B4C00224FF400512046FFF75C
:100BFC008DFC4FF4005304930123059300230693BB
:100C0C000223079304A92046FFF78AFB08B010BD06
:100C1C0000100240001001400FB410B5C2B044AB3C
:100C2C0053F8044B41932246002101A800F04EFAE0
:100C3C00419B2246411C01A800F048FA42B0BDE895
:100C4C00104004B07047FEE700B591B00223069344
:100C5C0001230A9310230B9300230D9306A8FFF78F
:100C6C0075FCF0B90F2301930021029103910491BB
:100C7C00059101A8FFF790FEB8B9FFF749FF0D4B9E
:100C8C00A3FB00308009FFF71FFB0420FFF732FBAA
:100C9C00002211464FF0FF30FFF7E4FA11B05DF877
:100CAC0004FB93210448FFF7CEFFA1210248FFF774
:100CBC00CAFF00BFD34D6210EC17000800B59BB003
:100CCC00FFF786FAFFF7C0FFFFF76EFF18491948C8
:100CDC00FFF7A2FF184B1A68009203A818604FF098
:100CEC005A325A60FFF742FAB8B1134B5B68019362
:100CFC00114B0021009A43F831205B68B3F15A3F45
:100D0C0002D00198FFF743FF4FF400510B48FFF757
:100D1C0003FCC820FFF780FAF6E70A23084A0021F3
:100D2C001846FFF709FF4FF05A32034B5A60DFE7C2
:100D3C0040E20100FC1700088C000020001001406C
:100D4C000818000800B583B0244B9A6942F00102E0
:100D5C009A619A6902F001020092009ADA6942F0F3
:100D6C008052DA61DB6903F080530193019B03200D
:100D7C00FFF766FA002211466FF00B00FFF772FACC
:100D8C00002211466FF00A00FFF76CFA00221146A0
:100D9C006FF00900FFF766FA002211466FF00400AD
:100DAC00FFF760FA002211466FF00300FFF75AFAC2
:100DBC00002211466FF00100FFF754FA0022114691
:100DCC004FF0FF30FFF74EFA054A536823F0E0630B
:100DDC0043F00073536003B05DF804FB0010024055
:100DEC00000001407047FEE7FEE7FEE7FEE77047B4
:100DFC007047704708B5FFF7FDF9FFF78CFA08BD8F
:100E0C000F4B1A6842F001021A6059680D4A0A40E9
:100E1C005A601A6822F0847222F480321A601A68BE
:100E2C0022F480221A605A6822F4FE025A604FF4AF
:100E3C001F029A604FF00062034B9A60704700BF2C
:100E4C00001002400000FFF800ED00E0002103E07C
:100E5C000B4B5B58435004310A480B4B42189A42D7
:100E6C00F6D30A4A02E0002342F8043B084B9A42AC
:100E7C00F9D3FFF7C5FF00F00FF8FFF71FFF70471E
:100E8C00D018000800000020700000207000002026
:100E9C00A8000020FEE7000070B500250C4E0D4C9C
:100EAC00A41BA410A54209D100F078FC00250A4E21
:100EBC000A4CA41BA410A54205D170BD56F82530D0
:100ECC0098470135EEE756F8253098470135F2E79B
:100EDC00C8180008C8180008C8180008CC18000862
:100EEC00024B0146186800F057B800BF0C000020F8
:100EFC00024B0146186800F003B800BF0C0000203C
:100F0C0038B50546002943D051F8043C0C1F002B82
:100F1C00B8BFE41800F0E8F81E4A1368104633B95D
:100F2C00636014602846BDE8384000F0DEB8A34288
:100F3C000BD921686218934201BF1A685B6852187A
:100F4C00226063600460EDE713465A680AB1A2425E
:100F5C00FAD919685818A0420BD1206801445818C6
:100F6C0082421960DED110685268014419605A60DF
:100F7C00D8E702D90C232B60D4E7206821188A42C9
:100F8C0001BF116852680918216062605C60C9E792
:100F9C0038BD00BF9400002070B5CD1C25F00305B2
:100FAC0008350C2D38BF0C25002D064601DBA94257
:100FBC0003D90C233360002070BD00F095F8234A50
:100FCC001468214691B9224C23681BB9304600F0B5
:100FDC0041F820602946304600F03CF8431C26D1ED
:100FEC000C233046336000F080F8E4E70B685B1BA1
:100FFC001AD40B2B0FD90B60CC18CD50304600F007
:10100C0074F804F10B00231D20F00700C31A1BD049
:10101C005A42E25070BD8C420BBF63684B68136040
:10102C00636018BF0C46E9E70C464968CAE7C41C64
:10103C0024F00304A04205D0211A304600F00AF82F
:10104C000130CDD02560D9E770BD00BF94000020E1
:10105C009800002038B50023054C0546084623604F
:10106C0000F08EFB431C02D1236803B12B6038BD0A
:10107C00A400002030B5141E05469BB0184605DAB6
:10108C008B234FF0FF302B601BB030BD4FF402733D
:10109C00ADF80C300CBF234604F1FF3302930593DB
:1010AC004FF6FF7300910491ADF80E3002461E9B73
:1010BC006946284600F076F8431CBCBF8B232B6096
:1010CC00002CE1D00022009B1A70DDE707B50093DD
:1010DC0013460A46014603480068FFF7CBFF03B0EE
:1010EC005DF804FB0C000020704770472DE9F047B9
:1010FC008E6882469E420C469146984635D88A891F
:10110C0012F4906F31D00223256809696F1A656952
:10111C0005EB450595FBF3F508F101033B449D42B6
:10112C0038BF1D46530531D52946FFF735FF064616
:10113C0050B90C23CAF80030A3894FF0FF3043F0AC
:10114C004003A381BDE8F0873A46216900F0C4FA58
:10115C00A38923F4906343F08003A38126613E446A
:10116C00266046466561ED1BA560464528BF464690
:10117C0049463246206800F0BAFAA36800209B1B4F
:10118C00A36023681E442660BDE8F0872A4600F061
:10119C00C8FA06460028E1D121695046FFF7B0FE97
:1011AC00C7E700002DE9F04F9DB003938B89804673
:1011BC001C060D4616460FD50B696BB94021FFF77F
:1011CC00EBFE2860286128B90C23C8F800304FF0DA
:1011DC00FF30C4E040236B610023099320238DF87A
:1011EC00293030234FF0010B8DF82A3037463C461E
:1011FC0014F8013B002B3CD1B7EB060A0BD053463D
:10120C00324629464046FFF771FF013000F0A280BC
:10121C00099B534409933B78002B00F09B800023DF
:10122C004FF0FF3204930793059206938DF85330D9
:10123C001A9305222178504800F040FA671C049B51
:10124C00D8B9D90644BF20228DF853201A0744BFC1
:10125C002B228DF8532022782A2A16D000210A201E
:10126C00079A27463B780134303B092B50D9C9B13A
:10127C0011E0252BC0D02746B9E73F4A3C46801ADF
:10128C000BFA00F018430490D3E7039A111D12686F
:10129C000391002A01DB079204E0524243F002035F
:1012AC00079204933B782E2B0DD17B78791C2A2B3B
:1012BC0032D1039B02371A1D1B680392002BB8BF57
:1012CC004FF0FF3305932D4C03223978204600F064
:1012DC00F5F938B14023001B03FA00F0049B0137E9
:1012EC00034304933978062225487E1C8DF8281078
:1012FC0000F0E4F9002835D0224BFBB9039B0733EF
:10130C0023F0070308330393099B4B4409936DE7C0
:10131C0000FB02320121A4E700230A24184605939E
:10132C000F463A780131303A092A03D9002BCAD03A
:10133C000590C8E704FB00200123F1E703AB009301
:10134C002A46114B04A94046AFF30080B0F1FF3F91
:10135C008146D9D1AB895B063FF539AF09981DB0F1
:10136C00BDE8F08F03AB00932A46074B04A9404617
:10137C0000F084F8EAE700BF941800089A180008F7
:10138C009E18000800000000F91000082DE9F04735
:10139C0091461F468A680B6906469342B8BF1346AE
:1013AC00C9F8003091F843200C46DDF8208012B1CA
:1013BC000133C9F800302368990642BFD9F80030D0
:1013CC000233C9F80030256815F0060507D104F181
:1013DC00190AE368D9F800209B1A9D422ADB94F87D
:1013EC0043302268003318BF012392062FD404F136
:1013FC00430239463046C047013022D02368E568A5
:10140C0003F00603042B18BF0025D9F800204FF079
:10141C00000908BFAD1AA368226908BF25EAE57563
:10142C009342C4BF9B1AED181A344D451BD10020B2
:10143C00BDE8F0870123524639463046C04701309B
:10144C0003D14FF0FF30BDE8F0870135C1E7302004
:10145C00E11881F843005A1C94F8451022440233D9
:10146C0082F84310C3E70123224639463046C04771
:10147C000130E6D009F10109D7E700002DE9F0436E
:10148C0017460A7E85B06E2A984606460C460C9B7B
:10149C0001F1430E00F0BC801AD8632A2ED00AD872
:1014AC00002A00F0C880582A00F08A8004F1420516
:1014BC0084F842202AE0642A01D0692AF6D12168F6
:1014CC001A6811F0800F23D0111D1960136827E0E2
:1014DC00732A00F0B48008D86F2A2AD0702AE5D17C
:1014EC000A6842F020020A6003E0752A21D0782AAB
:1014FC00DCD178226F4984F8452064E01A6801F148
:10150C004205111D1960136884F842300123A3E0D1
:10151C0011F0400F02F104011960D7D0B2F900307C
:10152C00002B03DA2D225B4284F8432062490A2205
:10153C0017E02068196810F0800F03D0081D1860A0
:10154C000B6806E010F0400F01F104001860F7D0B2
:10155C000B886F2A14BF0A2208225749002084F8EE
:10156C0043006568002DA560C0F29C80206820F0C7
:10157C0004002060002B3FD1002D40F09580754673
:10158C00082A0BD12368DA0708D5236962689A42C6
:10159C00DEBF302305F8013C05F1FF35AEEB05034A
:1015AC002361CDF800803B4603AA21463046FFF765
:1015BC00EDFE013055D14FF0FF3005B0BDE8F083A2
:1015CC0081F845203C492268186812F0800F00F120
:1015DC0004051D6001D0036802E05506FBD50388A5
:1015EC00D00744BF42F0200222601BB9226822F0CF
:1015FC00200222601022B1E77546B3FBF2F002FB29
:10160C001033CB5C05F8013D03460028F5D1B7E754
:10161C0008681A6810F0800F496904D0101D186012
:10162C001368196007E010F0400F02F10400186015
:10163C001368F6D01980002375462361B1E71A6848
:10164C00111D1960156800216268284600F036F8F3
:10165C0008B1401B606063682361002384F8433049
:10166C009FE723692A4639463046C0470130A2D04D
:10167C0023689B0707D5002504F11909E368039A31
:10168C009B1A9D4205DBE068039B9842B8BF184645
:10169C0093E701234A4639463046C04701308AD089
:1016AC000135EBE7002BA7D10B7804F1420584F848
:1016BC00423065E7B6180008A518000810B5C9B285
:1016CC0002449042034601D1002010BD1C78013029
:1016DC008C42F6D1184610BD10B5431E0A449142F7
:1016EC0000D110BD11F8014B03F8014FF7E7884208
:1016FC0010B501EB020303D8421E99420CD110BD68
:10170C009842F9D28118D21AD34200D110BD13F8E5
:10171C00014D01F8014DF7E711F8014B02F8014FAB
:10172C00EBE7F8B5074614460E4621B91146BDE85D
:10173C00F840FFF731BC22B9FFF7E2FB25462846FB
:10174C00F8BD00F014F884420FD921463846FFF753
:10175C0023FC05460028F2D031462246FFF7BCFF99
:10176C0031463846FFF7CCFBE9E73546E7E751F859
:10177C00040C0028A0F10400BCBF0B58C018704723
:10178C00044A05491368002B08BF0B461844106027
:10179C00184670479C000020A8000020F8B500BF38
:1017AC00F8BC08BC9E467047F8B500BFF8BC08BC36
:0417BC009E4670478E
:1017C00002030405060708090A0B0C0D0E0F101082
:1017D00001020000000000000000000001020304FC
:1017E0000607080900000000010203042E2E2F53F3
:1017F00072632F6D61696E2E6300000068656C6C0A
:101800006F202025640000004572726F723A2074C8
:10181000686973206973206120736572696F7573DD
:101820002073797374656D206572726F7220256400
:1018300000000000000000000000000000000000A8
:101840000000000000000000000000000000000098
:101850000000000000000000000000000000000088
:101860000000000000000000000000000000000078
:101870000000000000000000000000000000000068
:101880000000000000000000000000000000000058
:1018900000000000232D302B2000686C4C00656692
:1018A00067454647003031323334353637383941B1
:1018B00042434445460030313233343536373839C7
:0818C0006162636465660000CB
:0418C80031010008E2
:0418CC000D01000802
:1018D000010000001000000000A24A0410000020D7
:1018E000000000005418000874180008341800089C
:1018F00000000000000000000000000000000000E8
:1019000000000000000000000000000000000000D7
:1019100000000000000000000000000000000000C7
:1019200000000000000000000000000000000000B7
:1019300000000000000000000000000000000000A7
:0400000508000E5988
:00000001FF
